:020000040800F2
:10000000C86A0120A1010008394D00081745000801
:10001000354D0008591B0008A955000800000000D4
:10002000000000000000000000000000A14E0008D9
:10003000731E0008000000003D4D0008A34E00089C
:10004000BB010008BB010008BB010008BB010008A0
:10005000BB010008BB010008BB010008BB01000890
:10006000BB010008BB010008BB010008BB01000880
:10007000BB010008BB010008BB010008BB01000870
:10008000491D0008BB010008E9190008BB01000870
:10009000BB010008BB010008BB010008BB01000850
:1000A000BB010008BB010008BB010008BB01000840
:1000B000BB010008754F0008BB010008BB01000828
:1000C000BB010008BB010008BB010008BB01000820
:1000D000BB010008BB01000899550008BB010008DE
:1000E000BB010008BB010008BB010008BB01000800
:1000F000BB010008BB010008BB010008BB010008F0
:10010000BB010008BB010008BB010008BB010008DF
:10011000BB010008BB010008BB010008BB010008CF
:10012000591D0008BB010008BB010008BB01000805
:10013000BB010008BB010008BB010008BB010008AF
:10014000BB010008BB010008BB010008BB0100089F
:10015000BB010008BB010008BB010008BB0100088F
:10016000BB010008BB010008BB010008BB0100087F
:10017000BB010008BB010008BB0100080000000033
:10018000BB010008BB010008DFF810D000F0CCFA7A
:1001900000480047316E0008AFF30080C86A0120B4
:1001A0000648804706480047FEE7FEE7FEE7FEE711
:1001B000FEE7FEE7FEE7FEE7FEE7FEE7614F000829
:1001C000890100082DE9F05F0546002092469B4614
:1001D00088460646814640241BE02846414647465D
:1001E000224600F083F953465A46C01A914110D373
:1001F00011461846224600F06AF92D1A67EB0108ED
:100200004F4622460120002100F061F917EB00095A
:100210004E41201EA4F10104DFDC484631462A4647
:100220004346BDE8F09FD2B201E000F8012B491E21
:10023000FBD270470022F6E710B513460A46044683
:100240001946FFF7F0FF204610BD2DE9FE4F80460E
:1002500081EA0300C00F0C46009021F0004123F01A
:100260000045B8EB0200A94105D240462146904620
:100270001C460B46024623F00040104347D0270D92
:10028000C7F30A00C3F30A510290401A01904028B4
:100290006BDAC3F3130040F4801B0098924620B140
:1002A0000023D2EB030A63EB0B0B01985946C0F114
:1002B0004002504600F00BF906460D46504659469E
:1002C000019A00F023F910EB08006141002487EA4D
:1002D000115284EAE7731A4340D0009A62B3019A3C
:1002E000012A4FEA075215DC001B61EB02014FF0B7
:1002F000004202EA0752CDE90042001C41F580119C
:1003000032462B4600F023F903B0BDE8F08F40469B
:100310002146F9E7001B61EB0201001C41F5801347
:1003200000185B412018A2F5001747EB030140EAD3
:10033000D570B6196D4111E06D084FEA360645EAF1
:10034000C0754FEA0752001B61EB0201001C41F52A
:10035000801149084FEA30000019514132462B46BE
:1003600003B0BDE8F04F00F0E3B800980122400070
:100370000023D0EB020263EBE073009821464FEAC2
:10038000E074B8EB000061EB0401E9E783F000439F
:100390005BE781F0004158E72DE9FE4F81EA030455
:1003A00004F0004421F0004100944FF0000B23F0D2
:1003B000004350EA01045ED052EA03045BD0C3F369
:1003C0000A54C1F30A552C44A4F2F3340194A0FB5F
:1003D0000254C1F3130141F48011C3F3130343F436
:1003E000801301FB024400FB034E840A970A44EA8F
:1003F000815447EA8357A4FB076802958D0A05FBE1
:1004000007854FEA932C04FB0C542705029D4FEA05
:10041000065847EA1637B5EB08056EEB070C870E52
:10042000920E47EA811742EA8312A7FB0201B6EB5C
:100430000B0164EB00042B0D43EA0C335E1844EB14
:100440001C50DA465146E7FB0201C5F313044FEA9C
:100450000B3343EA14534FEA0432019C43EA060388
:10046000A4F10C040294009CCDE900B400F06FF8F4
:1004700003B0BDE8F08F00200146F9E700F000422C
:1004800030F000400AD0C10D01F56071C0F31600D4
:1004900042EA0151C208400711437047002001465B
:1004A000704730B50B46014600202022012409E0A8
:1004B00021FA02F59D4205D303FA02F5491B04FA1D
:1004C00002F52844151EA2F10102F1DC30BD202AFC
:1004D00004DB203A00FA02F1002070479140C2F19B
:1004E000200320FA03F3194390407047202A04DBCD
:1004F000203A21FA02F00021704721FA02F3D0409D
:10050000C2F120029140084319467047202A06DBB9
:10051000CB17203A41FA02F043EAE07306E041FAD1
:1005200002F3D040C2F120029140084319467047BF
:1005300010B5141E73F1000408DA401C41F10001EB
:1005400092185B411A4301D120F0010010BD2DE942
:10055000F04D92469B4611B1B1FA81F202E0B0FA39
:1005600080F220329046FFF7B2FF04460F4640EA81
:100570000A0041EA0B0153465A46084313D011467C
:1005800053EA010019D0C8F140025046FFF7AEFF10
:1005900005460E46504659464246FFF798FF084327
:1005A00005D0012004E020463946BDE8F08D00204A
:1005B000054346EAE0762C4337430A986305E40A8C
:1005C000A0EB08000022FD0A44EA47540A3002D595
:1005D00000200146E9E7010510196941DDE90845F8
:1005E00000196941BDE8F04DA2E72DE9F04D81EA1F
:1005F000030404F0004B21F0004514464FF0000ABC
:1006000023F0004150EA050220D054EA01021DD037
:10061000C5F30A570246C5F31303C1F31300C1F330
:100620000A5640F4801543F48013A7EB0608101B0C
:10063000D64608F2FD3873EB050002D308F1010835
:1006400001E092185B41B8F1000F03DA0020014687
:10065000BDE8F08D00204FF48011064684460EE080
:10066000171B73EB050705D3121B63EB050306434A
:100670004CEA010C49084FEA300092185B4150EAFD
:100680000107EDD152EA030012D082EA040083EAA6
:100690000501084305D0101BAB4106D201220023FF
:1006A00006E000224FF0004302E06FF00102531019
:1006B0001AEB06004CEB085110EB0A0041EB0B0162
:1006C000BDE8F04DFFF734BFC1F30A52C1F3130187
:1006D00040F2FF3341F480119A4202DA00200146D1
:1006E000704740F233439A42A2F2334202DC524254
:1006F000FFF7FCBEFFF7EBBE30B5041E71F100043E
:1007000004DB4FF00044404264EB0101141E73F11E
:10071000000405DB1C464FF00043524263EB040328
:10072000994208BF904230BD064C074D06E0E06894
:1007300040F0010394E8070098471034AC42F6D328
:10074000FFF726FD5454020874540208F0B5F1B1C5
:10075000002300BF02EB430C32F813E0BCF802C0E8
:100760002EF0030E2CF0030C50F80E5050F80C60D5
:1007700000EB0E0400EB0C0740F80E6040F80C5044
:100780007E68656802338B4266607D60E2D3F0BDAF
:100790002DE9F0410488984616460746012A0D4681
:1007A0000CD1E4B3281D214690ED000A0139B1EEC9
:1007B000400A80ED000A00F10800F5D1FF2C0CDDA5
:1007C000B4F5806F10DBB4F5805F22D0B4F5006F14
:1007D00011D0B4F5806F17D021E03F2C10DC102C25
:1007E00012D0202C07D01AE0B4F5807F03D0B4F5E6
:1007F000007F0ED013E03846294600F05FF90EE086
:10080000402C06D0802C0AD13846294600F08AF8C0
:1008100005E07A6828462146012300F0F7FBB8F18D
:10082000000F04D0B989BA682846FFF78FFF012E60
:100830001CD100EE104A002CB8EE400A08BFBDE8FB
:10084000F081B7EE001A81EE000A00BF95ED001AA4
:1008500095ED012A20EE011A22EE402A85ED001ABC
:1008600085ED012A013C05F10805EFD1BDE8F081D5
:1008700000224260FF294FF0FF0201800EDDB1F53A
:10088000806F16DB29D0B1F5805F2BD0B1F5006FFA
:1008900046D14CF6F043C0F6000336E03F2913DCA6
:1008A000102924D020293BD14CF61053C0F6000368
:1008B0002BE0B1F5807F1FD0B1F5007F30D14CF631
:1008C0003053C0F6000320E040291AD0802927D1F8
:1008D0004CF6D043C0F6000317E04CF6C043C0F618
:1008E000000312E04CF62053C0F600030DE04CF676
:1008F000E043C0F6000308E04CF60053C0F60003E6
:1009000003E04CF64053C0F60003191D03F1080242
:100910000C331B88126809688381C0E90112002228
:1009200050B270472DE9F0472DED028B03888046C9
:10093000084601EB830AD8F804200021B1EBD30F5D
:100940004FEA530900F0AB80D9080AEB890C00EBA1
:10095000890E0027C4190AEB070594ED000A95EDEE
:10096000003A94ED011A95ED014A0EEB07030CEBEA
:10097000070694ED022A95ED025A70EE035A93EDA4
:10098000006AD6ED001AD6ED012AD6ED023AD6ED70
:10099000034AC4ED005A71EE045A93ED017AC4ED96
:1009A000015A72EE055AD3ED020AC4ED025AD4ED93
:1009B000035AD5ED036A31EE441A35EEA68A36EEB7
:1009C000214AD3ED037A84ED038A83ED004A37EEA2
:1009D000224A83ED014A30EEA34A83ED024A37EE04
:1009E000A44A83ED034AD31931EEC64A33EEE06AD6
:1009F000D3ED000AD3ED011A30EE430A32EE452A58
:100A000032EEC75A60EE202A61EE213A21EE201A1A
:100A100020EE210A31EE400A85ED010A24EE210A7A
:100A200025EE211A25EE205A72EEA32A24EE204A42
:100A300030EE450AC5ED002A86ED000A34EE010AC3
:100A400086ED010A93ED020A93ED031A35EEE63ABC
:100A500022EE004A23EE015A23EE003A22EE012A4A
:100A600034EEE77A33EE422A85ED032A26EE012A98
:100A700027EE011A27EE003A26EE000A34EE054A68
:100A800032EE432A30EE010A013907F1100785EDF5
:100A9000024A86ED022A86ED030A7FF45BAF4946DF
:100AA000022300F0B3FAD8F8042050464946022346
:100AB000BDEC028BBDE8F04700F0A8BA2DE9F04F7D
:100AC00081B02DED088B8EB002880346500801EBF3
:100AD000800505EB800691ED000A91ED011A96ED77
:100AE000002A96ED013A04935B6806EB800730EE2E
:100AF000024A30EE420A31EE032A31EE431A95EDF6
:100B0000013A95ED005A0593930897ED017AD7EDD8
:100B1000000A029374EE452A72EE433A34EE054A17
:100B200032EE032A6FF0010334EE204A32EE072A38
:100B300003EB920230EE036A71EE451A30EE430A7F
:100B400031EE051A81ED004A0A9181ED012A510822
:100B500036EE476A71EEA01A72EEE02A73EEC73ADB
:100B600030EE070A31EE601A0095019603970D9159
:100B7000C10085ED006AC5ED011AC6ED002AC6ED7B
:100B8000013A87ED000A87ED011A0C9100EB400154
:100B90006FF007036FF003074FEA800E07EBC00BFF
:100BA00007EB800A03EB001903EB81028C000020A5
:100BB000002500210B9100BF0A9E059B079006951A
:100BC000089406EB04080C9C311806EB040C06EBA9
:100BD0000E0491ED020A9CED022AD4ED020A30EED9
:100BE000026AD8ED022A36EE204A34EE224A91ED0E
:100BF000031A9CED033AD4ED031AD8ED033A81EDC4
:100C0000024A94ED034A31EE037A98ED035A37EE27
:100C1000044ACDF824E034EE054A81ED034A0B99ED
:100C200030EE420A31EE431A30EE212A03EB010E78
:100C300032EE634A31EE602A0D9932EE225A36EED8
:100C4000602A37EE613A30EE610A31EE201A1F1841
:100C5000581932EE622A33EE633A30EE230A002945
:100C600031EE621A00F0CC800A998E1801EB0A036B
:100C700001EB0905594493ED007AD6ED010AD1ED57
:100C8000003A77EE202AD5ED014A72EEA35A75EEAE
:100C9000A45A13ED016AD6ED001A51ED016AD5EDA3
:100CA000007AC3ED005A11ED018A76EE215A95EDD6
:100CB000009A35EE888A38EE098A03ED018A97EDAD
:100CC000028A97ED039A24EE08AA25EE09BA25EECA
:100CD000085A24EE094A35EE444A37EE605A84ED4C
:100CE000034A36EE614A35EE666A33EEE47A36EE52
:100CF000276A74EE070A66EE091A20EE899A60EEFA
:100D0000880A26EE086A3AEE0BAA71EEE00A36EE81
:100D1000096A84ED02AAC1ED000A01ED016A90EDB5
:100D2000046AD0ED050A62EE061A23EE208A23EE4D
:100D3000063A22EE202A33EE422A8CED032A32EEC6
:100D4000E32A35EEE63A71EE881A33EE673A32EE70
:100D5000642A0D98CCED021A62EE461A23EE066A5A
:100D600023EE203A22EE202A31EEC33A32EE462A12
:100D7000013886ED013A86ED002A0D909EED062A97
:100D80009EED073A0C9820EE026A61EE030A21EE0E
:100D9000021A20EE030A083031EE400A37EEE61A56
:100DA000DDF824E00C9088ED030A37EE440A31EEBA
:100DB000451A0B9821EE034A20EE033A20EE020A70
:100DC00036EE206A21EE021A34EE400A183088ED21
:100DD000026A85ED010A31EE030A089C0B9085ED4D
:100DE000000A069D07980EF1080E083410350830E9
:100DF000A9F10809083AABF1080BAAF1080ADBE6E9
:100E000097ED026A97ED037A64EE060A65EE071A1B
:100E100025EE065A24EE074A30EEA16A35EE444A22
:100E200084ED026A84ED034A90ED044A90ED055A80
:100E300022EE046A23EE057A23EE043A22EE052A16
:100E400036EE074A33EE422A8CED024A8CED032A35
:100E50009EED062A9EED073A029D20EE024A21EE03
:100E6000035A21EE021A20EE030A0A98059A34EE7C
:100E7000052A31EE400A2946042388ED022A88ED2E
:100E8000030A00F0C3F8049C009862682946042312
:100E900000F0BCF8626801982946042300F0B6F817
:100EA00062680398294604230EB0BDEC088B01B09C
:100EB000BDE8F04F00F0AAB82DE9F04381B02DED68
:100EC000028B0C4600219046B1EB920F054674D080
:100ED0004FEA980795ED000A95ED011A20EE000AF9
:100EE00021EE011A30EE018AB0EE480A04F0F4FC5B
:100EF000B4EE400AF1EE10FA49D684ED000A95ED01
:100F0000020A95ED031A20EE000A21EE011A30EED6
:100F1000018AB0EE480A04F0DFFCB4EE400AF1EEBC
:100F200010FA39D684ED010A95ED040A95ED051AFB
:100F300020EE000A21EE011A30EE018AB0EE480AD6
:100F400004F0CAFCB4EE400AF1EE10FA29D684EDA2
:100F5000020A95ED060A95ED071A20EE000A21EE29
:100F6000011A30EE018AB0EE480A05F1200904F1B9
:100F7000100604F0B1FCB4EE400AF1EE10FA15D6FA
:100F800084ED030A013F4D463446A3D113E0B0EE91
:100F9000480A04F0A1FCB0E7B0EE480A04F09CFC5B
:100FA000C0E7B0EE480A04F097FCD0E7B0EE480A7C
:100FB00004F092FCE4E734464D4618F0030620D0D6
:100FC00095ED000A95ED011A20EE000A21EE011AB6
:100FD00030EE018AB0EE480A271D04F07DFCB4EE25
:100FE000400AF1EE10FA07D684ED000A013E05F141
:100FF00008053C46E4D104E0B0EE480A04F06CFC7D
:10100000F2E7BDEC028B01B0BDE8F0832DE9F04FB3
:1010100081B02DED108BA0B0DFED04CA009004303C
:10102000CDE902320190CDE91E1101E0F304353F14
:101030001F9A4FF0000AD308DF00A7EBD200C000D0
:101040001D904FEAC20C03EB430503EB83025801EA
:1010500006931E01019B2C014FEAC20EED00CDE963
:101060000C0ECDE90A5600BF0A9D191803EB0509BD
:101070001D9D03EB0E0003EB070810ED014A8646A9
:101080009A19181903EB050B13ED011A11ED012A3A
:1010900018ED013A12ED017A50ED010A59ED011AED
:1010A0005BED012A31EE025A33EE046A77EE203A04
:1010B00071EEA24A75EE235A76EE246A75EEA67A90
:1010C00043ED017A75EEE65AD8ED007A9EED008A7E
:1010D00099ED00BA9BED00CAD3ED006A41ED015ACB
:1010E000D1ED005A92ED009A90ED00AA37EE88EA11
:1010F0007BEE0C8A36EEA5DA39EE0AFA35EE635A43
:1011000036EE646A7EEE684A7DEE0F9A7DEE4F3AC7
:1011100035EE24DA35EE645A7EEE28AA02ED01DAC5
:1011200033EEC6DA00ED015A36EE235A31EE421A9A
:1011300033EE442A37EE603A31EEE24A37EEC86ABF
:101140007BEE4C0A79EEAABA79EEEA9A72EE441A6C
:1011500032EE042A36EE604A36EE206AC3ED00BA5B
:10116000C1ED009A82ED00DA80ED005A36EEE55AC4
:1011700039EE4A7A61EEAC1A22EE2C2A24EE2C4A81
:1011800026EE2C6A71EE210A73EE022A75EE043AFD
:1011900077EE064A31EE611A33EE422A35EE443AD2
:1011A00037EE464A2646744670EEA45A70EEE40ABC
:1011B00031EE045A1F9A1E9948ED015A73EEE25A15
:1011C0004BED010A72EEA30A204604ED015A33EEFC
:1011D000425ADDF834E0C8ED005ACBED000A84ED48
:1011E000005A0C9831EE441A34460B9E924409ED95
:1011F000011A32EE031A8A45634489ED001AFFF49E
:1012000033AF1F984028C0F0D4810298009E80B26E
:1012100005900698CDE90E4CC0EBC000C00000243C
:1012200001251097049000BF0598039B044403EB2D
:10123000C40191ED000A03EB04128DED1D0A92ED3D
:10124000000A04EB440203EBC2008DED1C0A90ED92
:10125000000A03EB44118DED1B0A91ED000A04EB2B
:101260008401C80003EBC1018DED1A0A91ED000A5B
:101270004FEAC20A4FEA021B03EB02128DED190A74
:1012800092ED000AC4EBC4024FEAC40CD10003EB98
:10129000C2028DED180A92ED000A0CF104024FEA29
:1012A000041E1A448DED170A92ED000A0EF1040295
:1012B0001A448DED160A92ED000A0AF104024FEA73
:1012C00044191A448DED150A92ED000A09F1040241
:1012D0001A448DED140A92ED000A043018448DED85
:1012E000130A90ED000A0BF1040018448DED120A68
:1012F00090ED000A081D18440994D0ED006A079685
:10130000B44608952B46DDE90C54DDE90A76DDF894
:1013100010808DED110A00BF10980E990CEB050995
:101320000CEB000E0CEB04000CEB060B0CEB010AB3
:101330000CEB07020CEB0801DCED027A99ED028A56
:101340009EED029A90ED02AA9BED02DA9AED02EA76
:1013500092ED02FAD1ED028A37EE88BA39EE0ACA66
:101360007DEE0E9A7FEE28AA7BEE29BAF0EE6C3A5B
:101370007CEE2ACA7BEEACDACCED02DA7BEEECBA7C
:10138000DCED03CAD9ED03DADEED03EAD0ED03FAB2
:101390009BED030A9AED031A92ED032A91ED033AAD
:1013A0003CEEAD4A3EEEAF5A30EE016A32EE037AC1
:1013B00074EE060A75EE071ADDED1A4ADDED135AD2
:1013C00070EEA12A70EEE10ACCED032A64EEAB1AAE
:1013D00065EEA02A71EEA21A64EEA00A65EEAB2AB1
:1013E00070EEE20AC9ED021AC9ED030A7BEE690A42
:1013F0007CEE6A1A34EE464A35EE475A9DED1CCA19
:10140000DDED154A30EE856A34EE617A6CEE062A1F
:1014100024EE87BA2CEE077A24EE866A30EEC55A9F
:1014200031EE844ADDED180ADDED111A37EE466A19
:101430008BED036A20EE856A21EE847A20EE844AE1
:1014400021EE855A37EE066A34EE454A39EE4A5A9D
:101450003FEE687A7EEEEF1A30EE410A32EE431A22
:101460007BEE222A35EE472A35EE073A31EEC15A95
:1014700031EE811ACBED022A8AED026A8AED034A27
:1014800037EEC84A3DEE4E6A7CEEED0A22EE232A84
:1014900023EE233A25EE235A21EE231AF0EE63CAF7
:1014A00034EE027A76EE031A70EE852A70EE017A37
:1014B000DDED1D3ADDED164A37EE278A32EEE19A70
:1014C00023EE88AA24EE89BA23EE899ADDED173A35
:1014D00037EE677A71EEA21A63EE872A66EEA17A7A
:1014E00063EEA11A26EE877A24EE888A31EEC77A57
:1014F00034EE422A36EE433A30EEC54A30EE410A27
:10150000DDED190ADDED121A39EE488A32EE001AC5
:1015100034EE435A8EED038A81ED037A20EE816A20
:1015200021EE857A20EE855A21EE811A3AEE0BAA39
:1015300072EEA72A36EE076A35EE411A8EED02AA40
:10154000C1ED022A80ED026A80ED031A1F9833EE86
:10155000041A03441E989DED1B4A9DED145A32EE69
:10156000400A83420F9824EE002A25EE013A24EE29
:10157000011A25EE000A32EE032A31EE400A8444B5
:1015800082ED022A82ED030AFFF4C6AE089D06989A
:10159000079E0135099C854206F10806FFF444AE1A
:1015A0000298C00002901F983F2806981F903FF6AF
:1015B0003FAD20B0BDEC108B01B0BDE8F08F10B591
:1015C00078B14FF400710446FFF752F950B94FF467
:1015D000806020824DF2D440C0F60100606100209E
:1015E00000E0FF2040B210BD10B568B140210446B4
:1015F000FFF73EF948B9802020824EF2D440C0F671
:1016000001006061002000E0FF2040B210BD10B575
:1016100078B14FF480610446FFF72AF950B94FF4CE
:10162000006020824EF2D460C0F6010060610020AC
:1016300000E0FF2040B210BD10B570B1802104461B
:10164000FFF716F950B94FF48070208240F2D46051
:10165000C0F602006061002000E0FF2040B210BD33
:1016600010B568B110210446FFF702F948B92020EF
:10167000208240F6D420C0F602006061002000E025
:10168000FF2040B210BD10B578B14FF400610446A0
:10169000FFF7EEF850B94FF48050208240F65430F6
:1016A000C0F602006061002000E0FF2040B210BDE3
:1016B00010B578B14FF480710446FFF7D9F850B9EE
:1016C0004FF40070208244F65430C0F6020060618E
:1016D000002000E0FF2040B210BD10B568B120210D
:1016E0000446FFF7C5F848B94020208245F254303F
:1016F000C0F602006061002000E0FF2040B210BD93
:10170000F0B581B014460E46054673B12846314601
:1017100022461F4600F060F8284621463A4601233B
:1017200001B0BDE8F040FFF733B82846314600224B
:101730000123FFF72DF828463146224601B0BDE8C7
:10174000F04000F0A3B8B1F5007F0ADA7F2916DC7B
:10175000202929D040293BD141F2DB61C0F60001AC
:101760000847B1F5006F14DAB1F5007F21D0B1F56B
:10177000806F2DD141F2BF51C0F60001084780298A
:101780001CD0B1F5807F23D141F23961C0F6000150
:101790000847B1F5805F16D0B1F5006F18D141F25E
:1017A0000F61C0F60001084741F26161C0F6000117
:1017B000084741F2B161C0F60001084741F2E95122
:1017C000C0F60001084741F28761C0F600010847F2
:1017D0004FF0FF307047000080B591ED001A91ED99
:1017E000012AD0F814E0008831EE023AB6EE000A81
:1017F00031EE421AB0F1010C23EE003A21EE001A4C
:1018000082ED003A82ED011A08BF80BD01F10803A4
:1018100001EBCC010EF108000832043111ED011A80
:1018200091ED002A93ED003A93ED014A90ED005AB4
:1018300090ED016A33EE417A72EE040A67EE051A02
:1018400060EE862A27EE066A31EE031A34EE422A4B
:1018500025EE205A31EE611A32EE062A31EE621A76
:1018600032EE452A21EE001A22EE002A82ED001AFD
:1018700082ED012ABCF1010C03F1080300F108001C
:1018800002F10802A1F10801C8D180BD91ED000A62
:1018900091ED011A0388406930EE002A31EE011AF9
:1018A000A3F1010C32EE013AB6EE000A32EE411A13
:1018B00023EE003A21EE001A00F1080301F10800BE
:1018C00001EBCC0182ED003A82ED011A08320431BD
:1018D00011ED011A90ED003A91ED002A90ED014AC8
:1018E00093ED005A93ED016A31EE437A72EE040AE9
:1018F00067EE051A27EE067A31EE031A34EE422A15
:1019000025EE205A20EE866A31EE211A32EE072AA1
:1019100031EE061A32EE452A21EE001A22EE002A96
:1019200082ED001A82ED012ABCF1010C03F10803DB
:1019300000F1080002F10802A1F10801C8D17047C6
:1019400070B50546AC6B206C00F0500050BB206CAD
:1019500040F4007020642068806800F04050E8B9CE
:10196000207ED8B92068C06A00F4700020B12068D9
:10197000806800F4806088B92068406820F020000A
:1019800021684860206C20F480702064206C00F492
:10199000805018B9206C40F001002064204600F00F
:1019A000B5FB0BE0206C00F0100018B1204600F0F1
:1019B000BCFB03E0A06BC16C2846884770BD70B5C6
:1019C0000546AC6B40202064606C40F0040060640D
:1019D000204600F0AAFB70BD70B50446A56B2846F2
:1019E00000F0A2FB70BD000010B5024800F09EFBA5
:1019F00010BD00003040002055494A6822F44032B2
:101A00004A604A6843681A434A600268526822F48E
:101A1000807203685A6002685368026943EA0222CE
:101A200003685A600268526822F0407203685A6084
:101A30000268526883681A4303685A6002689268B1
:101A400022F4006203689A6002689268C3681A43CD
:101A500003689A603F4B826A9A4218D00268926883
:101A600022F0706203689A6002689268836A1A437F
:101A700003689A600268926822F0405203689A6094
:101A800002689268C36A1A4303689A600BE00268AE
:101A9000926822F0706203689A600268926822F08D
:101AA000405203689A600268926822F0020203685A
:101AB0009A6002689368027E43EA420203689A6071
:101AC0002022125CA2B10268526842F400620368EC
:101AD0005A600268526822F4604203685A600268E1
:101AE0005368426A521E43EA423203685A6005E074
:101AF0000268526822F4006203685A600268D26A7F
:101B000022F470020368DA620268D36A828B521E82
:101B100043EA02520368DA620268926822F40072B1
:101B200003689A600268936890F8302043EA422282
:101B300003689A600268926822F4806203689A607F
:101B400002689368426943EA822203689A60704798
:101B5000002301400100000F00BFFEE770B50446FE
:101B6000A56B284600F04AFD0120287170BD70B5B4
:101B70000446A56B284600F007FD0120287170BDC2
:101B800070B50546AC6B206940F00400206120462A
:101B900000F036FD0120207170BD70B50546AC6BBC
:101BA000206940F004002061204600F0EFFC012095
:101BB000207170BD70B50446A56B284600F01FFD6E
:101BC00070BD70B50446A56B284600F0DEFC70BD04
:101BD00008B5114A92ED052AF0EE421A92ED042A58
:101BE000B0EE421A117892ED032AF0EE420A92ED1D
:101BF000022AB0EE420A506800F016F8074802F0D8
:101C000083F800204FF48073054A01460090054890
:101C100000F072FD08BD0000AC620120EC41002024
:101C2000C4620120D840002030B52DED048B81B076
:101C30000446B0EE408AB0EE609A0D46F0EE418A5E
:101C4000F0EE619A00213A4800F0F6FD394802F0C2
:101C5000A9F839480570446080ED028AC0ED048A15
:101C60008CB1642C0FD80D203449086008460068F8
:101C7000401C3349B1FBF0F0B0FBF4F0401E2F499B
:101C8000091D086026E0642C12D9B4F57A7F0FD8BC
:101C900002202A49086008460068401C2849B1FB18
:101CA000F0F0B0FBF4F0401E2449091D086011E07B
:101CB000B4F57A7F0ED900202049086008460068F4
:101CC000401C1F49B1FBF0F0B0FBF4F0401E1B4973
:101CD000091D0860184890ED052AF0EE421A90EDB3
:101CE000042AB0EE421A027890ED032AF0EE420A7E
:101CF00090ED022AB0EE420A41684FF4807004F081
:101D00002FFD0D48D0ED050AB0EE600A05F07CFB12
:101D1000084801F0F9FF002080230A4A014600909C
:101D2000034800F0E9FC01B0BDEC048B30BD0000BD
:101D3000D8400020EC410020AC6201202804014082
:101D4000F4061400C462012010B5024800F010FE31
:101D500010BD0000EC40002010B5024800F008FE65
:101D600010BD000078400020014608781038182384
:101D7000B0FBF3F20848805CC865032A05D90868FF
:101D80006FF30900001D886503E008686FF3090020
:101D90008865886D70470000547700080146002070
:101DA0008A6A8B69CBB932B1012A0DD0022A03D0DD
:101DB000032A10D10EE000BFCB6A03F08073B3F1A9
:101DC000807F00D1012007E0CB6AB3F1C07F00D152
:101DD000012001E000E000BF34E08B69B3F5005F53
:101DE0001AD132B1012A07D0022A03D0032A11D115
:101DF0000AE000BF01200EE0CB6A03F08073B3F16C
:101E0000807F00D1012006E0CB6AB3F1C07F00D112
:101E1000012000E000BF15E032B1012A05D0022AFE
:101E200004D0032A0CD103E000BF00BF012008E06A
:101E3000CB6A03F08073B3F1807F00D1012000E012
:101E400000BF00BF704730B50468246824F48024C4
:101E500005682C60046863608468402C04D10468C1
:101E6000A2600468E16003E00468A1600468E260C5
:101E700030BD704772B600BFFEE7000030B52DEDF3
:101E8000028B87B00546284602F058FD9FED320AC6
:101E9000B0EE408A00241EE03048006830F814009C
:101EA00000EE100AB8EE400ADFED2D0A20EE200AFF
:101EB000DFED2C0A80EE201A2B4800EB840080ED29
:101EC000001A294800EB840090ED000A30EE080A61
:101ED000B0EE408A641CB4F5805FDDDB9FED210A23
:101EE000C8EE000AB0EE608A00241DE01E4800EB38
:101EF000840090ED000A30EE480A1B4800EB840095
:101F000080ED000A184800EB840090ED000A1748A5
:101F100000EB8400D0ED000A20EE200A144800EB0C
:101F2000840080ED000A641CB4F5805FDEDB4FF4B2
:101F3000805101A8FFF707FC00230E4A0C4901A8B5
:101F4000FFF7DEFB4FF480520B490A48FEF7B4FF5F
:101F500007B0BDEC028B30BD000000001400002073
:101F600033335340000080457C4200207C22012016
:101F70007C8200207CC200207C020120704700008F
:101F800038B502460020009000BF92F83C000128BE
:101F900001D1022038BD012082F83C0000BF086852
:101FA000092816D91068C0680C780A3C04EB44056F
:101FB0000724AC40A0431468E0600C780A3C04EBB2
:101FC00044048868A0401468E46820431468E06012
:101FD00013E0106800690C7804EB44050724AC405A
:101FE000A043146820610C7804EB44048868A04086
:101FF000146824692043146820614868072817D2B0
:102000001068406B0C79641E04EB84051F24AC40FF
:10201000A04314686063088880B20C79641E04EBE6
:102020008404A0401468646B20431468606331E04A
:1020300048680D2817D21068006B0C79E41F04EB78
:1020400084051F24AC40A04314682063088880B234
:102050000C79E41F04EB8404A0401468246B204333
:102060001468206316E01068C06A0C790D3C04EB1C
:1020700084051F24AC40A0431468E062088880B245
:102080000C790D3C04EB8404A0401468E46A2043FE
:102090001468E062194B1A4C1068A04206D1086817
:1020A000122803D1586840F480005860144C10681E
:1020B000A0421CD10868102802D00868112816D147
:1020C000586840F400005860086810280FD10D4887
:1020D00000680D4CB0FBF4F000EB80004000009075
:1020E00002E00098401E009000980028F9D100BF3F
:1020F000002082F83C0000BF00BF4BE700230140F6
:10210000002001401000002040420F0010B504469E
:102110000120034908700102024800F009FF10BDC8
:102120000000002000080240704770472DE9F04190
:10213000044600250026206807682068D0F804803F
:1021400007F0020508F0200695B38EB3206C00F06E
:10215000100018B9206C40F400702064206880687A
:1021600000F04050E8B9207ED8B92068C06A00F479
:10217000700020B12068806800F4806088B9206811
:10218000406820F0200021684860206C20F48070B6
:102190002064206C00F4805018B9206C40F00100DD
:1021A00020642046FFF7B2FF6FF01200216808603C
:1021B00007F0040508F08006E5B3DEB3206C00F0FC
:1021C000100018B9206C40F400502064206880682A
:1021D00000F4401038BB2068806B00F4401020B140
:1021E0002068806800F48060E8B92068406800F4E6
:1021F0008060C0B92068806800F0405098B9207EA7
:1022000088B92068406820F0800021684860206C10
:1022100020F480502064206C00F4807018B9206C89
:1022200040F0010020642046FFF7A8FE6FF00C008C
:102230002168086007F0010508F0400685B17EB10D
:102240002068006800F0010050B1206C40F480303C
:102250002064204600F050F86FF00100216808600B
:1022600007F0200508F080667DB176B1606C40F023
:10227000020060646FF02000216808602046FFF7CC
:1022800054FF6FF0200021680860BDE8F081000075
:1022900070B5044600250CB9012070BD1549A06A2F
:1022A000884200D000BF206C30B9204600F026F8EC
:1022B0000020606484F83C00206C00F0100088B9B5
:1022C000206C20F4885040F0020020642046FFF784
:1022D00093FB00206064206C20F0020040F00100BD
:1022E000206400E0012500BF002084F83C0000BF0E
:1022F0002846D2E70100000F7047000010B586B0F5
:102300000446142101A8FDF795FF2D492068884255
:1023100054D100BF002000902A48006840F480702B
:10232000284908600846006800F48070009000BFEB
:1023300000BF00BF0020009022481438006840F021
:1023400001002049143908600846006800F00100C7
:10235000009000BF00BF20200190032002900020C9
:10236000039001A9184800F0E9FC184818490860D2
:1023700000204860002116488160C1604FF48061F0
:10238000016149004161890081610021C1614FF40F
:10239000003101620021416200F00AFC08B1FFF740
:1023A00069FD00BF0A48A063846300BF0022114694
:1023B000122000F05BFE122000F044FE06B010BDBB
:1023C00000200140443802400000024010640240F6
:1023D00078400020F8B504460D46164600200090CF
:1023E00000BF94F83C00012801D10220F8BD012073
:1023F00084F83C0000BF2068806800F00100A0B9AC
:102400002068806840F001002168886055480068B5
:102410005549B0FBF1F000EB4000009002E000985D
:10242000401E009000980028F9D12068806800F4D0
:102430008070B0F5807F05D12068806820F48070BE
:10244000216888602068806800F0010000287ED044
:10245000206C40F20161884340F480702064206861
:10246000406800F4806028B1206C20F4005040F4F3
:1024700080502064206C00F48050B0F5805F04D15F
:10248000606C20F00600606401E00020606400BF22
:10249000002084F83C0000BF344F3548A16BC8636E
:1024A0003448A16B08643448A16BC8646FF0220003
:1024B000216808602068406840F0806021684860BA
:1024C0002068806840F4807021688860226802F18A
:1024D0004C0133462A46A06B00F0E0FB786800F020
:1024E0001F0018BB25492068884213D02449206862
:1024F000884204D1381D006800F01F0050B1214906
:10250000206888422BD11948001D006800F01F0088
:10251000102824D22068806800F04050F8B9206864
:10252000806840F080402168886018E01349206886
:10253000884214D12068806800F0405078B9206843
:10254000806840F080402168886008E0FFE7206CE8
:1025500040F010002064606C40F0010060640020D6
:1025600044E700001000002040420F00002301401B
:1025700041190008D9190008BF19000800200140BE
:102580000021014000220140704770477047F0B5BC
:102590000346002603B109B90120F0BD00BF5879F8
:1025A000012801D10220F8E70120587100BF022064
:1025B00018711868046802F0100740F6FE70B84001
:1025C0008443D1E9000740EA070502F0100005FA4C
:1025D00000F00443186804601868006802F0100CEA
:1025E000C02707FA0CF7B8431F683860012018713C
:1025F00000BF0020587100BF3046CEE770477047DB
:10260000704710B504460CB9012010BD207920B9DF
:1026100000206071204600F009F80220207100209F
:102620002061012020710020EFE7000010B586B086
:102630000446142101A8FDF7FDFD2A4920688842BF
:102640004DD100BF002000902748006840F00050A6
:10265000254908600846006800F00050009000BF5F
:1026600000BF00BF002000901F481038006840F0F5
:1026700001001D49103908600846006800F001009B
:10268000009000BF00BF10200190032002900020A6
:10269000039001A9154800F051FB15481549086041
:1026A0004FF0606048604021124881600021C160A5
:1026B0004FF4806101618900416189008161891164
:1026C000C161490201620021416200F071FA08B162
:1026D000FFF7D0FB00BF0748A060846300BF06B0CF
:1026E00010BD00000074004040380240000002406D
:1026F00088600240EC4000202DE9F04704460E4679
:1027000017469A46DDF820804FF0010914B90120E0
:10271000BDE8F08700BF6079012801D10220F7E70A
:102720000120607100BF0220207116BB3C48A168E7
:10273000C8633C48A16808643B48A168C864206835
:10274000006840F4805021680860B8F1000F03D0A1
:10275000B8F1040F08D103E0206800F1080507E094
:10276000206800F10C0503E0206800F1100500BFAF
:1027700022E02E48E168C8632D48E16808642D48CE
:10278000E168C8642068006840F0805021680860F3
:10279000B8F1000F03D0B8F1040F08D103E02068AE
:1027A00000F1140507E0206800F1180503E0206837
:1027B00000F11C0500BF00BF6EB92068006840F43E
:1027C00000502168086053462A463946A06800F048
:1027D00065FA81460CE02068006840F000502168EE
:1027E000086053462A463946E06800F057FA8146A9
:1027F00000BF0020607100BFB9F1000F09D120684F
:10280000006806F010020121914008432168086029
:1028100003E0206940F004002061484678E70000AA
:102820005D1B0008B51B0008811B00086F1B00081A
:10283000C31B00089B1B000870B504460D460CB96D
:10284000012070BD2068006805F010024FF480512F
:1028500091408843216808602068006805F01002F4
:10286000012191408843216808604DB9A06800F0BB
:1028700014F82068006820F400502168086008E01F
:10288000E06800F00AF82068006820F00050216835
:102890000860012020710020D3E770B50446A56DC3
:1028A00000F056FB064694F83500022808D0802038
:1028B000606500BF002084F8340000BF012070BDB7
:1028C0002068006820F016002168086020684069D0
:1028D00020F0800021684861206C08B9A06C28B104
:1028E0002068006820F008002168086020680068FF
:1028F00020F001002168086010E000F029FB801B37
:1029000005280BD920206065032084F8350000BF1E
:10291000002084F8340000BF0320D0E7206800685E
:1029200000F001000028E8D194F85C103F208840B6
:10293000A860012084F8350000BF002084F834002E
:1029400000BF00BFBBE7014691F83500022803D065
:102950008020486501207047052081F8350008680F
:10296000006820F001000A6810600020F3E7000012
:10297000F8B50446002000908C4800684FF41651CA
:10298000B0FBF1F7A56D2E6894F85C100820884024
:10299000304098B12068006800F0040070B12068F1
:1029A000006820F004002168086094F85C1008209A
:1029B0008840A860606D40F00100606594F85C108C
:1029C00001208840304068B12068406900F08000F4
:1029D00040B194F85C1001208840A860606D40F020
:1029E0000200606594F85C1004208840304068B1B3
:1029F0002068006800F0020040B194F85C100420E8
:102A00008840A860606D40F00400606594F85C1038
:102A100010208840304078B32068006800F008003B
:102A200050B394F85C1010208840A86020680068BB
:102A300000F4802080B12068006800F4002028B9EC
:102A4000206CC8B12046216C884715E0A06C98B175
:102A50002046A16C88470FE02068006800F4807071
:102A600028B92068006820F0080021680860206C00
:102A700010B12046216C884794F85C1020208840D3
:102A80003040002865D02068006800F01000002861
:102A90005FD094F85C1020208840A86094F835003E
:102AA000052828D12068006820F0160021680860F9
:102AB0002068406920F0800021684861206C08B9D6
:102AC000A06C28B12068006820F008002168086028
:102AD00094F85C103F208840A860012084F83500FD
:102AE00000BF002084F8340000BF206D10B12046E4
:102AF000216D8847F8BD2068006800F4802080B10F
:102B00002068006800F4002028B9606C10B12046ED
:102B1000616C88471DE0E06BD8B12046E16B8847C7
:102B200017E02068006800F4807068B920680068C9
:102B300020F0100021680860012084F8350000BFF3
:102B4000002084F8340000BFE06B10B12046E16B38
:102B50008847606D38B3606D00F00100F0B105206A
:102B600084F835002068006820F0010021680860C2
:102B700000BF0098401C0090B84200D905E02068D2
:102B8000006800F001000028F3D100BF012084F8A4
:102B9000350000BF002084F8340000BFE06C10B1A5
:102BA0002046E16C884700BFA4E700001000002029
:102BB0002DE9F0410446002500F0CAF9074614B992
:102BC0000120BDE8F081606A00B100BF022084F8F6
:102BD000350000BF002084F8340000BF2068006882
:102BE00020F00100216808600AE000F0B1F9C01B84
:102BF000052805D920206065032084F83500E0E72A
:102C00002068006800F001000028EED12068056807
:102C100021480540D4E901010843E16808432169DE
:102C2000084361690843A1690843E1690843216ACF
:102C300008430543606A042803D1D4E90B01084323
:102C40000543206805602068456925F00705606A2E
:102C50000543606A04280DD1A06A0543E06A48B1C3
:102C60002046FFF79BF828B140206065012084F8DA
:102C70003500A6E7206845612046FFF775F806464F
:102C800094F85C103F208840B0600020606501200F
:102C900084F83500002094E73F8010F02DE9F047DC
:102CA00004460D4616461F464FF00008D4F85890CB
:102CB00000BF94F83400012802D10220BDE8F0875B
:102CC000012084F8340000BF94F83500012825D194
:102CD000022084F83500002060653B4632462946D4
:102CE0002046FFF7B0F894F85C103F208840C9F800
:102CF00008002068006840F0160021680860206C19
:102D000028B12068006840F0080021680860206849
:102D1000006840F001002168086006E000BF002064
:102D200084F8340000BF4FF002084046C6E710B5F3
:102D30000446A0B203F07CFC10BD0000F8B50246CA
:102D40000B460025002400200021D6E0012606FACB
:102D500001F51E6806EA0504AC4274D11E7906F03E
:102D60000306012E04D01E7906F00306022E13D1AD
:102D700090684F000326BE40B0434F00DE68BE405F
:102D800030439060506801268E40B0431E79C6F3F0
:102D900000168E40304350601E7906F00306032E65
:102DA00009D0D0684F000326BE40B0434F009E6854
:102DB000BE403043D0601E7906F00306022E13D1C8
:102DC000CF0802F1200656F827004E07F70E0F260F
:102DD000BE40B0434F07FF0E1E69BE403043CF08D0
:102DE00002F1200646F8270010684F000326BE4077
:102DF000B0431E7906F003064F00BE40304310601A
:102E00005E6806F44036002E76D000BF002600969D
:102E10003C4E366846F480463A4F3E603E46366841
:102E200006F48046009600BF00BF374E8F0856F864
:102E300027008E07370F0F26BE40B043334EB242F5
:102E400002D1002624E057E0314EB24201D10126E2
:102E50001EE0304EB24201D1022619E02E4EB2429F
:102E600001D1032614E02D4EB24201D104260FE019
:102E70002B4EB24201D105260AE02A4EB24201D1C0
:102E8000062605E0284EB24201D1072600E00826BA
:102E90008F073F0FBE4030431B4E8F0846F8270078
:102EA000224E3068A0435E6806F4801606B12043C7
:102EB0001E4E3060361D3068A0435E6806F4001672
:102EC00006B12043194E361D3060184E361F30684B
:102ED000A0435E6806F4003606B12043134E361F49
:102EE0003060361F3068A0435E6806F4803606B155
:102EF00020430E4E083E3060491C1029FFF426AFD7
:102F0000F8BD00004438024008380140000002408B
:102F10000004024000080240000C02400010024081
:102F20000014024000180240001C0240083C01400E
:102F300010B5426921EA020302EA010443EA0443AC
:102F4000836110BD0AB1816101E00B0483617047A8
:102F50000148006870470000040000200348006832
:102F600003490978084401490860704704000020BB
:102F70000C00002010B50D48006840F400700B49AB
:102F800008600846006840F48060086008460068F1
:102F900040F480700860032000F0A6F80F2000F0D5
:102FA00007F800F02BF8002010BD0000003C0240A4
:102FB00070B504460E4800784FF47A71B1FBF0F01A
:102FC0000C490968B1FBF0F5284600F0B6FD08B1E0
:102FD000012070BD102C07D200222146501E00F0A7
:102FE00045F80548046001E00120F2E70020F0E721
:102FF0000C000020100000200800002008B500BFD1
:10300000002000900E48006840F480400C490860A1
:103010000846006800F48040009000BF00BF00BF79
:1030200000200090081F006840F08050091F0860D1
:103030000846006800F08050009000BF00BF08BD47
:10304000443802400146084600280DDB00BF00BF9F
:1030500000F01F0301229A4043099B0003F1E02383
:10306000C3F8002100BF00BF00BF70472DE9F05F2B
:1030700080460D461646002702F0BCFA0746394640
:103080002A46334601F00700C0F1070ABAF1040FDF
:1030900002D94FF0040A01E0C0F1070AD14600F15D
:1030A000040ABAF1070F02D24FF0000A01E0A0F1C2
:1030B000030AD4464FF0010A0AFA09FAAAF1010AF2
:1030C0000AEA020A0AFA0CFA4FF0010B0BFA0CFB9F
:1030D000ABF1010B0BEA030B4AEA0B042146404615
:1030E00002F090FABDE8F09F00BF00F00702064B27
:1030F00019684FF6FF031940044B0B4343EA0221C2
:10310000014B196000BF70470CED00E00000FA05AC
:1031100070B504460D460CB9012070BD58480068D2
:1031200000F00700A84209D255490D700846006812
:1031300000F00700A84201D00120EEE7207800F05F
:10314000020002281DD1207800F00400042805D1D7
:103150004C48006840F4E0504A490860207800F08C
:103160000800082805D14748006840F460404549F8
:1031700008604448006820F0F000A1680843414915
:103180000860207800F00100A8B36068012807D12A
:103190003C4808380068C0F34040B8B90120BCE79B
:1031A0006068022802D06068032807D135480838D3
:1031B0000068C0F3406048B90120AEE731480838E4
:1031C0000068C0F3400008B90120A6E72D48006858
:1031D00020F00300616808432A490860FFF7B8FE41
:1031E000064609E0FFF7B4FE801B41F288318842B1
:1031F00002D9032091E707E02248006800F00C00A4
:103200006168B0EB810FEDD11D48006800F0070048
:10321000A84209D91A490D700846006800F0070055
:10322000A84201D0012078E7207800F004000428AB
:1032300007D11448006820F4E050E16808431149C0
:103240000860207800F00800082808D10D480068C0
:1032500020F46040216940EAC1000A49086000F09A
:103260003FF808490968C1F30311074A515CC84097
:103270000649086006480068FFF79AFE00204CE700
:10328000003C0240083802405C7700081000002033
:10329000080000200148006870470000100000206E
:1032A00000B5FFF7F7FF04490968C1F38221034A1B
:1032B000515CC84000BD0000083802406C7700082F
:1032C00000B5FFF7E7FF04490968C1F34231034A3B
:1032D000515CC84000BD0000083802406C7700080F
:1032E0002DE9F047002400250026A1462548006866
:1032F00000F00C0020B1042805D008283AD105E0E0
:10330000DFF8849039E0DFF8849036E01D48001F34
:10331000006800F03F041B48001F006800F48000B4
:1033200078B11A481749091F0968C1F38811A0FB31
:1033300001700146224600233846FCF743FF05464C
:103340000EE011480F49091F0968C1F38811A0FB5D
:1033500001700146224600233846FCF733FF05463C
:103360000848001F0068C0F30140401C4600B5FB40
:10337000F6F902E0DFF8109000BF00BF4846BDE854
:10338000F0870000083802400024F40040787D01F6
:10339000F8B504460CB90120F8BD207800F0010012
:1033A000002874D0F948006800F00C0004280DD003
:1033B000F648006800F00C00082813D1F348001FFD
:1033C000006800F48000B0F5800F0BD1EF4808389A
:1033D0000068C0F34040002859D06068002856D1EA
:1033E0000120D9E700BF6068B0F5803F08D1E74809
:1033F0000838006840F48030E449083908601EE06D
:103400006068B0F5A02F0DD1E0480838006840F49E
:103410008020DE49083908600846006840F48030A2
:1034200008600CE0D9480838006820F48030D7499B
:10343000083908600846006820F48020086000BF52
:10344000606890B1FFF784FD054606E0FFF780FD58
:10345000401B642801D903209EE7CC480838006847
:10346000C0F340400028F1D011E0FFF771FD0546A0
:1034700006E0FFF76DFD401B642801D903208BE7B0
:10348000C24808380068C0F340400028F1D12078D5
:1034900000F0020002285FD1BC48006800F00C0078
:1034A00058B1BA48006800F00C0008281CD1B74891
:1034B000001F006800F48000B0B9B4480838006804
:1034C000C0F3400020B1E068012801D0012063E78B
:1034D000AE480838006820F0F800216940EAC100D1
:1034E000AA490839086037E0E06800B30120A8491C
:1034F0000860FFF72DFD054606E0FFF729FD401B9C
:10350000022801D9032047E7A04808380068C0F323
:1035100040000028F1D09D480838006820F0F800ED
:10352000216940EAC10099490839086014E0002087
:1035300097490860FFF70CFD054606E0FFF708FD18
:10354000401B022801D9032026E79048083800686C
:10355000C0F340000028F1D1207800F008000828CE
:103560002CD16069A8B101208A490860FFF7F0FCFE
:10357000054606E0FFF7ECFC401B022801D90320BA
:103580000AE782486C300068C0F340000028F1D0A0
:1035900014E000207F490860FFF7DAFC054606E0EA
:1035A000FFF7D6FC401B022801D90320F4E6774838
:1035B0006C300068C0F340000028F1D1207800F0A2
:1035C0000400042870D1002770483830006800F0EB
:1035D000805090B900BF002000906C4838300068DF
:1035E00040F080506949383108600846006800F0B2
:1035F0008050009000BF00BF01276748006800F4BA
:103600008070B0B96448006840F480706249086016
:10361000FFF79EFC054606E0FFF79AFC401B0228D8
:1036200001D90320B8E65C48006800F480700028E7
:10363000F2D000BFA068012808D154486830006863
:1036400040F001005149683108601DE0A06805287C
:103650000DD14E486830006840F004004B49683195
:1036600008600846006840F0010008600CE0474828
:103670006830006820F0010044496831086008465D
:10368000006820F00400086000BFA068A8B1FFF740
:103690005FFC054609E0FFF75BFC401B41F2883107
:1036A000884202D9032077E626E03848683000686F
:1036B000C0F340000028EED013E0FFF749FC0546B8
:1036C00008E0FFF745FC401B41F28831884201D9F0
:1036D000032061E62D4868300068C0F340000028F0
:1036E000EFD1012F07D129483830006820F08050F1
:1036F00026493831086000BFA069002845D023481A
:10370000006800F00C0008285DD0A069022845D1AF
:1037100000201F490866FFF71BFC054606E0FFF77F
:1037200017FC401B022801D9032035E6174808384A
:103730000068C0F340600028F1D1D4E907010843D4
:10374000616A40EA81110122A06AC2EB500041EA9D
:1037500000412C20005D41EA00600C49091F08600F
:1037600001200B490866FFF7F3FB054606E0FFF76B
:10377000EFFB401B022801D903200DE6034808385F
:103780000068C0F340600028F1D049E008380240EA
:1037900000004742800E474200700040002021494F
:1037A0000866FFF7D5FB054606E0FFF7D1FB401B97
:1037B000022801D90320EFE51B480068C0F34060F0
:1037C0000028F2D12CE0A069012800D1E4E51648D8
:1037D000001D0668A069012820D006F48001E06978
:1037E00081421BD106F03F01206A814216D147F683
:1037F000C0703040616AB0EB811F0FD106F44031D8
:103800000122A06AC2EB5000B1EB004F06D106F0D6
:1038100070612C20005DB1EB006F01D00120BBE591
:103820000020B9E5000047420038024010B50446C8
:103830000CB9012010BD606A38B96068B0F5827FAC
:1038400000D105E00021E16102E000212161616118
:103850000021A16294F8510028B9002084F850009A
:10386000204600F047F8022084F8510020680068E4
:1038700020F0400021680860A08800F4827021894F
:1038800001F404410843A18901F400610843217C4B
:1038900001F002010843217D01F001010843218B61
:1038A00001F400710843217F01F038010843202111
:1038B000095D01F080010843218D01F400510843A6
:1038C000216808600421A06901EA104094F82410DE
:1038D00001F010010843216848602068C06920F4A5
:1038E00000602168C86100206065012084F85100F3
:1038F00000209FE710B586B00446142101A8FCF70C
:1039000099FC1B492068884230D100BF00200090FC
:103910001848006840F4804016490860084600686E
:1039200000F48040009000BF00BF00BF0020009066
:1039300010481038006840F002000E491039086045
:103940000846006800F00200009000BF00BF4FF47E
:103950002040019002200290002003900320049058
:103960000520059001A90448FFF7E8F906B010BD4D
:103970000038004040380240000402402DE9F8437E
:1039800004460F4616461D46FFF7E2FA8046B1464A
:1039900094F85100012802D00220BDE8F88307B155
:1039A0000EB90120F9E700BF94F85000012801D1B9
:1039B0000220F2E7012084F8500000BF032084F8C1
:1039C0005100002060652763A686E686A063A08775
:1039D000E08760642064A068B0F5004F0BD12068D8
:1039E000006820F04000216808602068006840F40A
:1039F0008040216808602068006800F0400040288E
:103A000005D02068006840F0400021680860E06848
:103A1000B0F5006F37D1606810B1B9F1010F09D16D
:103A2000206B00882168C860206B801C2063E08EBA
:103A3000401EE08623E02068806800F00200022833
:103A40000AD1206B00882168C860206B801C20632D
:103A5000E08E401EE08612E0FFF77AFAA0EB080045
:103A6000A84201D3681C00B94DB9012084F8510067
:103A700000BF002084F8500000BF03208DE7E08ED7
:103A80000028D8D136E0606810B1B9F1010F09D132
:103A9000206B007821680873206B401C2063E08E47
:103AA000401EE08623E02068806800F002000228C3
:103AB0000AD1206B007821680873206B401C2063BA
:103AC000E08E401EE08612E0FFF742FAA0EB08000D
:103AD000A84201D3681C00B94DB9012084F85100F7
:103AE00000BF002084F8500000BF032055E7E08E9F
:103AF0000028D8D142462946204601F021F908B1D4
:103B000020206065A06850B900BF002000902068A8
:103B1000C068009020688068009000BF00BF01204E
:103B200084F8510000BF002084F8500000BF606D91
:103B300008B1012031E700202FE770B50446254683
:103B4000681EB0F1807F01D301200FE0681E4FF0A6
:103B5000E02148610F214FF0FF3001F053FD0020BC
:103B60004FF0E021886107200861002070BD704798
:103B70007047000030B502460B4600BF92F83C008B
:103B8000012801D1022030BD012082F83C0000BF95
:103B9000022082F83D00106844681068816824F0B3
:103BA00070041868044310684460184D1068A842F7
:103BB0001BD01068B0F1804F17D0154D1068A84287
:103BC00013D0144D1068A8420FD0134D1068A842AE
:103BD0000BD0124D1068A84207D0114D1068A842B2
:103BE00003D0104D1068A84205D121F0800158681B
:103BF000014310688160012082F83D0000BF002071
:103C000082F83C0000BF00BFBDE70000000001409B
:103C10000004004000080040000C00400004014087
:103C2000004001400018004010B504460CB90120C6
:103C300010BD94F83D0028B9002084F83C002046CF
:103C400000F026F8022084F83D00211D206801F0D4
:103C500099F9012084F8460000BF84F83E00012154
:103C60003F200155402001554120015500BF00BFB4
:103C7000012084F84200432001554420015545208D
:103C8000015500BF012084F83D000020D0E700006E
:103C900038B5044619492068884218D100BF002071
:103CA00000901748006840F0020015490860084677
:103CB000006800F00200009000BF00BF0022114623
:103CC0001D20FFF7D3F91D20FFF7BCF915E00D49C2
:103CD0002068884211D100BF002000900848001DD4
:103CE000006840F002000649091D086008460068A7
:103CF00000F00200009000BF00BF38BD000400408B
:103D00004038024000040140014691F83D0001287E
:103D100001D001207047022081F83D001A4B08684D
:103D200098421BD00868B0F1804F17D0174B086835
:103D3000984213D0164B086898420FD0154B08686C
:103D400098420BD0144B0868984207D0134B086870
:103D5000984203D0124B086898420CD108688068DA
:103D600000F00702062A0CD00868006840F0010045
:103D70000B68186005E00868006840F001000B68F7
:103D800018600020C6E70000000001400004004069
:103D900000080040000C00400004014000400140C9
:103DA00000180040014600BF0868006A41F2111285
:103DB000104050B90868006A9210104028B908688D
:103DC000006820F001000A68106000BF012081F83F
:103DD0003D00002070472DE9F04104460D460027C4
:103DE00000BF94F83C00012802D10220BDE8F08118
:103DF000012084F83C0000BF022084F83D002068C8
:103E0000866826F0770626F47F4620688660286854
:103E1000502833D00CDC202850D004DC00284BD0B4
:103E2000102851D149E0302849D040284CD139E000
:103E300060282DD0702807D0B0F5805F03D0B0F592
:103E4000005F41D10DE041E0D5E902136A682068C6
:103E500001F00CF92068866846F0770620688660D5
:103E600034E0D5E902136A68206801F0FFF82068A1
:103E7000806840F480402168886027E0EA686968CB
:103E8000206801F007F95021206801F0FAF81DE0E0
:103E9000EA686968206801F010F96021206801F083
:103EA000F0F813E0EA686968206801F0F3F840214F
:103EB000206801F0E6F809E000BF00BF00BF2968F4
:103EC000206801F0DEF801E0012700BF00BF0120FB
:103ED00084F83D0000BF002084F83C0000BF384655
:103EE00084E7704770B504462068C5682068066995
:103EF00006F00200022819D105F00200022815D1AF
:103F0000401F21680861012020772068806900F047
:103F1000030018B12046FFF7E4FF05E0204600F05B
:103F200097F8204600F095F80020207706F004006E
:103F3000042819D105F00400042815D1C0432168D4
:103F40000861022020772068806900F4407018B171
:103F50002046FFF7C6FF05E0204600F079F820462E
:103F600000F077F80020207706F00800082819D123
:103F700005F00800082815D1C04321680861042015
:103F800020772068C06900F0030018B12046FFF7D1
:103F9000A8FF05E0204600F05BF8204600F059F845
:103FA0000020207706F01000102819D105F010002D
:103FB000102815D1C04321680861082020772068A7
:103FC000C06900F4407018B12046FFF78AFF05E091
:103FD000204600F03DF8204600F03BF80020207716
:103FE00006F0010048B105F0010030B16FF00100AA
:103FF00021680861204600F02DF806F08000802836
:1040000009D105F08000802805D1C04321680861EE
:104010002046FFF7ACFD06F04000402809D105F02E
:104020004000402805D1C04321680861204600F0C7
:1040300012F806F02000202809D105F020002028E1
:1040400005D1C043216808612046FFF791FD70BD8E
:104050007047704770477047704770472DE9F84FB9
:104060000446206805682068C668206847694FF0E4
:104070000009CA4605F00F09B9F1000F0AD105F091
:10408000200038B106F0200020B1204601F079F878
:10409000BDE8F88FB9F1000F7CD007F0010018B926
:1040A00006F49070002875D005F0010030B106F4D8
:1040B000807018B1606C40F00100606405F004008D
:1040C00030B107F0010018B1606C40F0020060648C
:1040D00005F0020030B107F0010018B1606C40F04B
:1040E0000400606405F0080048B106F0200010B933
:1040F00007F0010018B1606C40F008006064606C6B
:10410000002846D005F0200028B106F0200010B1AC
:10411000204601F036F820684069C0F3801A606CD0
:1041200000F0080010B9BAF1000F2DD0204600F0C1
:10413000E2FF2068406900F04000402820D100BF25
:1041400000BF2168143151E8001F21F040002168B0
:10415000143141E80002002AF3D100BFE06B50B1F6
:104160007748E16B0865E06BFEF7EDFB88B1E06B2B
:10417000016D88470DE02046FFF76FFF09E009E079
:104180002046FFF76AFF04E02046FFF766FF0020A5
:1041900060647DE7206B012878D105F010000028CD
:1041A00074D006F010000028FAD000BF0020009064
:1041B00020680068009020684068009000BF00BF41
:1041C0002068406900F04000402860D1E06B006842
:1041D00040681FFA80F8B8F1000F56D0A08D404516
:1041E00053DDA4F82E80E06BC069B0F5807F43D02A
:1041F00000BF00BF21680C3151E8001F21F480701E
:1042000021680C3141E80002002AF3D100BF00BF51
:1042100000BF2168143151E8001F21F0010021681E
:10422000143141E80002002AF3D100BF00BF00BFF3
:104230002168143151E8001F21F040002168143139
:1042400041E80002002AF3D100BF202084F8420098
:104250000020206300BF00BF21680C3151E8001F1F
:1042600021F0100021680C3141E80002002AF3D14E
:1042700000BFE06BFEF711FB02206063A08DE28DB2
:10428000801A81B22046FFF7E7FE01E742E0A08DE9
:10429000E18D401A1FFA80F8E08DD0B3B8F1000F1D
:1042A00037D000BF00BF21680C3151E8001F21F456
:1042B000907021680C3141E80002002AF3D100BF60
:1042C00000BF00BF2168143151E8001F21F0010038
:1042D0002168143141E80002002AF3D100BF2020F8
:1042E00084F842000020206300BF00BF21680C3129
:1042F00051E8001F21F0100021680C3141E8000254
:10430000002AF3D100BF0220606341462046FFF738
:10431000A3FEBDE605F0800030B106F0800018B1C4
:10432000204601F0C3F8B3E605F0400030B106F0D6
:10433000400018B1204600F014FFA9E600BFA7E630
:10434000E350000810B504460CB9012010BDA06967
:1043500000B100E000BF94F8410028B9002084F8C3
:104360004000204600F02AF8242084F8410020680C
:10437000C06820F400502168C860204600F080FF2B
:104380002068006920F49040216808612068406935
:1043900020F02A00216848612068C06840F400507D
:1043A0002168C86000206064202084F8410084F8FF
:1043B00042000020606300BFC8E7000010B586B06F
:1043C0000446142101A8FBF735FF1F4920688842E5
:1043D00037D100BF002000901C48006840F4003036
:1043E0001A4908600846006800F40030009000BFD9
:1043F00000BF00BF0020009014481038006840F053
:1044000001001249103908600846006800F00100F8
:10441000009000BF00BF0C200190022002900020FD
:104420000390032004900720059001A90848FEF797
:1044300085FC002211462620FEF718FE2620FEF7F6
:1044400001FE06B010BD00000044004040380240AC
:104450000000024070472DE9F84F04460E4617460B
:1044600099464FF0000A94F84100202850D106B137
:1044700017B90120BDE8F88F00206064212084F87E
:104480004100FEF765FD8246A784E784A068B0F589
:10449000805F04D1206910B90025B04602E035469E
:1044A0004FF000081EE05346002280212046CDF840
:1044B000009001F02BF820B1202084F84100032067
:1044C000D8E745B9B8F80000C0F308002168486093
:1044D00008F1020803E02878216848606D1CE08C30
:1044E000401EE084E08C0028DDD1534600224021AC
:1044F0002046CDF8009001F009F820B1202084F882
:1045000041000320B6E7202084F841000020B1E7F5
:104510000220AFE7704700BFFEE7000010B5044679
:104520004FF4A073F0220021084600F037F9024949
:10453000204600F0ABF910BD8051010010B500F02D
:1045400007F9012000F048F9C820FEF7F0FB112020
:1045500000F042F9CB2000F03FF9392000F056F985
:104560002C2000F053F9002000F050F9342000F026
:104570004DF9052000F04AF9CF2000F02DF9002078
:1045800000F044F9C12000F041F9302000F03EF97C
:10459000E82000F021F9852000F038F9112000F022
:1045A00035F9782000F032F9EA2000F015F9002002
:1045B00000F02CF9002000F029F9ED2000F00CF9B2
:1045C000642000F023F9032000F020F9122000F00D
:1045D0001DF9812000F01AF9F72000F0FDF82020E5
:1045E00000F014F9C02000F0F7F8202000F00EF9D8
:1045F000C12000F0F1F8112000F008F9C52000F00A
:10460000EBF8312000F002F93C2000F0FFF8C72061
:1046100000F0E2F8A92000F0F9F8F62000F0DCF84C
:10462000012000F0F3F8002000F0F0F8002000F086
:10463000EDF8362000F0D0F8482000F0E7F83A20F6
:1046400000F0CAF8552000F0E1F8B12000F0C4F8FD
:10465000002000F0DBF8182000F0D8F8B42000F0BB
:10466000BBF8002000F0D2F8002000F0CFF8F220D4
:1046700000F0B2F8002000F0C9F8262000F0ACF8F5
:10468000012000F0C3F8E02000F0A6F80F2000F0B1
:10469000BDF8312000F0BAF82B2000F0B7F80C205C
:1046A00000F0B4F80E2000F0B1F8082000F0AEF8E9
:1046B0004E2000F0ABF8F12000F0A8F8372000F011
:1046C000A5F8072000F0A2F8102000F09FF80320C2
:1046D00000F09CF80E2000F099F8092000F096F800
:1046E000002000F093F8E12000F076F8002000F0C0
:1046F0008DF80E2000F08AF8142000F087F80320CF
:1047000000F084F8112000F081F8072000F07EF816
:10471000312000F07BF8C12000F078F8482000F04C
:1047200075F8082000F072F80F2000F06FF80C20E8
:1047300000F06CF8312000F069F8362000F066F8DF
:104740000F2000F063F8292000F046F810BD0000AB
:1047500010B5002220210A48FEF7F4FB6420FEF782
:10476000E6FA00224FF480510648FEF7EBFB642086
:10477000FEF7DDFA012220210148FEF7E3FB10BD20
:10478000000802400004024001B50A2301226946E4
:104790000148FFF7F3F808BD4C4100202DE9F04136
:1047A00007460C4615461E462A2000F015F83846E6
:1047B00000F046F8284600F043F82B2000F00CF8F3
:1047C000204600F03DF8304600F03AF82C2000F08A
:1047D00003F8BDE8F081000010B5044600224FF454
:1047E00080510848FEF7AEFB002210210648FEF774
:1047F000A9FB2046FFF7C8FF012211030148FEF77D
:10480000A1FB10BD000402400008024010B50446A0
:1048100000224FF480510848FEF794FB012210213A
:104820000648FEF78FFB2046FFF7AEFF012211037B
:104830000148FEF787FB10BD00040240000802405B
:1048400038B5044620128DF80000E0B28DF8010062
:10485000012210210A48FEF775FB00224FF4805117
:104860000848FEF76FFB0A23022269460648FFF755
:1048700085F8012211030348FEF764FB38BD0000F0
:1048800000080240000402404C4100202DE9F84F8E
:1048900007460C460026C820B0EB440F01D9600043
:1048A00000E0C82006464FEA27290096009802F04B
:1048B000D1FB0546002004E005F80090411C6F5430
:1048C000801CB042F8D36000B0FBF6F86000B0FB8B
:1048D000F6F106FB110A012210211548FEF732FB02
:1048E00000224FF480511348FEF72CFBB8F1000F63
:1048F0000CD04FF0000B07E0B2B20A2329460E4855
:10490000FFF73CF80BF1010BC345F5D31FFA8AF210
:104910000A2329460848FFF731F801221103054808
:10492000FEF710FB284601F0F3FEBDE8F88F00000B
:1049300000080240000402404C41002010B504462B
:10494000012C06D0022C07D0032C08D0042C0CD14B
:1049500008E002F0B3FE09E002F062FE06E002F0B9
:1049600075FD03E002F0DAFD00E000BF00BF10BDFE
:1049700010B5FFF7E3FD4FF6FF70FFF7CFFD10BD59
:104980001FB500200090019002900390164817492F
:1049900008604FF480304860002114488160016154
:1049A000017680F820104FF08051C1624910816279
:1049B0000021C1600121C161002180F83010012176
:1049C0004161FDF765FC08B1FDF754FA0520009040
:1049D000012001900020029069460448FDF7D0FABA
:1049E00008B1FDF747FA1FBD00200140304000200C
:1049F0001CB50020009001900A480B490860084649
:104A0000FDF7FFFD08B1FDF735FA0C2000900020FE
:104A10000190002269460448FDF7B9FD08B1FDF791
:104A200029FA1CBD00740040D840002008B500BF22
:104A3000002000901648006840F480001449086087
:104A40000846006800F48000009000BF00BF00BF6F
:104A5000002000900846006840F4001008600846F6
:104A6000006800F40010009000BF00BF0022114653
:104A70001020FEF7FBFA1020FEF7E4FA00221146A0
:104A80003820FEF7F3FA3820FEF7DCFA08BD000004
:104A90003038024000B587B0142102A8FBF7CAFBEA
:104AA00000BF002001904848006840F0800046495F
:104AB00008600846006800F08000019000BF00BF59
:104AC00000BF002001900846006840F00100086027
:104AD0000846006800F00100019000BF00BF00BF61
:104AE000002001900846006840F004000860084675
:104AF000006800F00400019000BF00BF00BF00206C
:104B000001900846006840F002000860084600680E
:104B100000F00200019000BF00BF00BF0020019024
:104B20000846006840F0080008600846006800F089
:104B30000800019000BF00BF00224FF49871234885
:104B4000FEF700FA00224FF480512148FEF7FAF9EF
:104B500000224FF480411F48FEF7F4F93020029004
:104B600001200390002004900320059002A917481B
:104B7000FEF7E4F84FF480500290012003900020EB
:104B800004900320059002A91148FEF7D7F84FF4CE
:104B900080400290012003900220049000200590A4
:104BA00002A90C48FEF7CAF84FF480700290012069
:104BB0000390022004900020059002A90348FEF70C
:104BC000BDF807B000BD00003038024000080240C8
:104BD00000040240000C024010B50E480E49086067
:104BE0004FF48270486000210B488160C160016110
:104BF00041614FF4007181610021C1610162416234
:104C000081620A21C162FEF711FE08B1FDF732F997
:104C100010BD0000003800404C41002000B587B0B6
:104C20000020039004900590069001900290154892
:104C300015490860142048600021134881606321F1
:104C4000C1600021016180218161FEF7EDFF08B1A3
:104C5000FDF710F94FF48050039003A90A48FFF7BD
:104C6000BAF808B1FDF706F9202001900020029063
:104C700001A90548FEF77EFF08B1FDF7FBF807B074
:104C800000BD000000040040A441002000B587B032
:104C90000020039004900590069001900290154822
:104CA0001549086040F24730486000211248816091
:104CB0002721C1600021016141618161FEF7B4FFDC
:104CC00008B1FDF7D7F84FF48050039003A90A48C4
:104CD000FFF781F808B1FDF7CDF820200190002002
:104CE000029001A90448FEF745FF08B1FDF7C2F89C
:104CF00007B000BD00040140EC41002010B50B4896
:104D00000B4908604FF4E130486000210848816099
:104D1000C16001610C21416100218161C161FFF726
:104D200011FB08B1FDF7A6F810BD000000440040DB
:104D30003442002000BFFEE700BFFEE770470000DE
:104D40007CB504460E461546334601220221204614
:104D5000009500F039F828B1606D40F020006065E2
:104D600003207CBD164800681821B0FBF1F01549FE
:104D7000B0FBF1F04FF47A71484301906068B0F5F0
:104D8000827F0DD13346002280212046009500F01D
:104D90001BF898B1606D40F0200060650320E0E7EB
:104DA00000BF019800B908E00198401E01902068FA
:104DB0008068C0F3C0100028F3D100BF0020D0E706
:104DC0001000002040420F002DE9F84F04460D4628
:104DD00090461E46DDF82890FEF7BAF8A0EB0900D1
:104DE000371AFEF7B5F882462C480068C0F3CB307E
:104DF0007843009045E0701C002842D0FEF7A8F8E8
:104E0000A0EB0A00B84200D2A7BB2068406820F09F
:104E1000E000216848606068B0F5827F0DD1A0682D
:104E2000B0F5004F03D0A068B0F5806F05D12068C1
:104E3000006820F0400021680860A06AB0F5005FBB
:104E40000DD100BF2068006820F400502168086080
:104E50002068006840F400502168086000BF01200D
:104E600084F8510000BF002084F8500000BF0320E8
:104E7000BDE8F88FFFE7009800B900270098401EB2
:104E80000090206880682840A84201D1012000E0FD
:104E900000204045AFD10020EAE7000010000020CC
:104EA000704710B5FEF75AF810BD000000B593B07A
:104EB000302107A8FBF7BEF9142102A8FBF7BAF9C5
:104EC00000BF002001902448006840F08050224933
:104ED00008600846006800F08050019000BF00BFE5
:104EE00000BF002001901D48006840F480401B492D
:104EF00008600846006800F48040019000BF00BFD1
:104F0000012007900004089002200D9041050E91A9
:104F100019210F914FF4A8711091022111910421D0
:104F2000129107A8FEF734FA08B1FCF7A3FF0F208F
:104F3000029002200390002004904FF4A0500590AE
:104F40004FF480500690052102A8FEF7E1F808B161
:104F5000FCF790FF13B000BD4038024000700040E5
:104F60000348006840F47000014908607047000081
:104F700088ED00E010B50248FEF7B4FF10BD000058
:104F8000A441002010B502682D4B98420ED0B0F11C
:104F9000804F0BD02B4B984208D02B4B984205D01A
:104FA0002A4B984202D02A4B984203D122F0700239
:104FB0004B681A43224B984220D0B0F1804F1DD04D
:104FC000204B98421AD0204B984217D01F4B984242
:104FD00014D01F4B984211D01E4B98420ED01E4B3E
:104FE00098420BD01D4B984208D01D4B984205D0DB
:104FF0001C4B984202D01C4B984203D122F44072C1
:10500000CB681A4322F080034C6943EA0402026031
:105010008B68C3620B688362094B984202D00C4BC9
:10502000984201D10B69036301234361036903F0D3
:1050300001031BB1036923F00103036110BD0000EC
:10504000000001400004004000080040000C004047
:10505000000401400040014000440140004801407C
:1050600000180040001C00400020004030B50C46F5
:10507000816821F47F4142EA032525432943816069
:1050800030BD0A46816821F0700142F007031943E0
:105090008160704730B50B461446026A056A25F0F8
:1050A00001050562816921F0F00141EA041122F055
:1050B0000A021A438161026230BD30B50B461446C4
:1050C000026A056A25F010050562816921F47041C4
:1050D00041EA043122F0A00242EA03128161026235
:1050E00030BD70B50546AC6B0020E085E0842046FD
:1050F000FEF7B3FF70BD00BF00BF02680C3252E87C
:10510000002F22F4907102680C3242E80013002B49
:10511000F3D100BF00BF00BF0268143252E8002F75
:1051200022F001010268143242E80013002BF3D18F
:1051300000BF016B01290ED100BF00BF02680C3215
:1051400052E8002F22F0100102680C3242E80013EE
:10515000002BF3D100BF202180F842100021016311
:10516000704710B504462068C06820F040002168F0
:10517000C860202084F841002046FFF7CBF90020CA
:1051800010BDF8B5044694F84200222875D1A068F5
:10519000B0F5805F0CD1206950B90025A66A20685F
:1051A0004068C0F308003080A06A801CA06215E04F
:1051B000A56A0026A068B0F5805F03D0A06828B972
:1051C000206918B920684068287004E020684068A9
:1051D00000F07F002870A06A401CA062E08D401E95
:1051E00080B2E085002846D12068C06820F0200009
:1051F0002168C8602068C06820F480702168C86099
:105200002068406920F0010021684861202084F86E
:10521000420000206063206B012826D1002020631B
:1052200000BF00BF21680C3151E8001F21F01000C1
:1052300021680C3141E80002002AF3D100BF206848
:10524000006800F0100010280AD100BF0020009074
:1052500020680068009020684068009000BF00BF90
:10526000A18D2046FEF7F8FE02E02046FFF7F2F897
:105270000020F8BD01E00020FBE70220F9E7000074
:105280002DE9F84F04462068006920F44050E16899
:105290000843216808612169A068084361690843DF
:1052A000E169084300902068C06849F20C618843B6
:1052B000009908432168C8602068406920F4407064
:1052C000A16908432168486176492068884203D073
:1052D00075492068884203D1FDF7F2FF814602E05C
:1052E000FDF7DEFF8146E069B0F5004F6CD102208A
:1052F0006168A0FB015003461920A9FB007001461C
:105300002A463846FAF75EFF6421B0FBF1F04FEA17
:10531000001A02206168A0FB01510B461920A9FB6D
:1053200000712A463846FAF74DFF8346022061682D
:10533000A0FB015003461920A9FB00712A463846FC
:10534000FAF740FF6421B0FBF1F000EBC00101EB84
:105350000010ABEB8000322101EBC0006421B0FBF8
:10536000F1F000F0F8000AEB400A02206168A0FBAF
:10537000015003461920A9FB007001462A46384611
:10538000FAF720FF834602206168A0FB0150034624
:105390001920A9FB00712A463846FAF713FF642149
:1053A000B0FBF1F000EBC00101EB0010ABEB8000B3
:1053B000322101EBC0006421B0FBF1F000F00700E6
:1053C0005044216888606AE004206168A0FB0150B5
:1053D00003461920A9FB007001462A463846FAF711
:1053E000F1FE824604206168A0FB015003461920AB
:1053F000A9FB007001462A463846FAF7E3FE64210D
:10540000B0FBF1F000EBC00101EB0010AAEB800053
:10541000322101EB00106421B0FBF1F000F0F00A42
:1054200004206168A0FB017003461920A9FB00510C
:105430003A462846FAF7C6FE6421B0FBF1F00AEBC3
:10544000001A04206168A0FB01510B461920A9FB3A
:1054500000712A463846FAF7B5FE83460420616893
:10546000A0FB015003461920A9FB007001462A4603
:105470003846FAF7A7FE6421B0FBF1F000EBC0015B
:1054800001EB0010ABEB8000322101EB0010642136
:10549000B0FBF1F000F00F00504421688860BDE8D7
:1054A000F88F00000010014000140140014691F8FF
:1054B0004100212828D18868B0F5805F0BD10869A8
:1054C00048B90A6A1088C0F308000B685860086A77
:1054D000801C086205E00B6A581C086218780B688B
:1054E0005860C88C401E80B2C88458B90868C0682B
:1054F00020F080000B68D8600868C06840F0400069
:105500000B68D860002070470220FCE72DE9F843C3
:1055100004460D4617469846089E31E0701C70B34D
:10552000FDF716FDA0EB0800B04200D816B9032025
:10553000BDE8F8832068C06800F00400F8B1802D51
:105540001ED0402D1CD020680068C0F3C000B0B150
:1055500000BF00200090206800680090206840682C
:10556000009000BF00BF2046FFF7C5FD0820606423
:1055700000BF002084F8400000BF0120D8E7FFE70B
:10558000206800682840A84201D1012000E00020E6
:10559000B842C3D00020CBE710B50248FEF75EFD4D
:1055A00010BD00003442002000BFFEE70FB4054BE1
:1055B00010B503A9044A029800F08EFA10BC5DF8F9
:1055C00014FB0000F56600082000002041000802DE
:1055D00018BF04200A0E18BF40F001004FF07F42B0
:1055E00032EA010108BF40F00200012808BF05208F
:1055F0007047000002480068C0F3022070470000B6
:105600000CED00E010B5002804DB0A07130E054A74
:10561000135406E00A07140E034A00F00F031B1F81
:10562000D45410BD00E400E018ED00E070B54FF078
:1056300068422DED048BF0EE408A18EE900AB0EE31
:10564000608A18EE101A02EB4003B3F1654F3CBFBD
:1056500002EB4102B2F1654F7DD200BFC0F3C753E8
:10566000C1F3C7529A1A1B2A09DD10F0004F14BF6C
:105670009FED830A9FED830ABDEC048B70BD12F190
:105680001A0F36DA11F0004F09D010F0004F0CBF9E
:105690009FED7D0A9FED7D0ABDEC048B70BD88EE09
:1056A000889A19EE100AFFF791FF042808BF00F04E
:1056B00033F918EE900AFFF789FF054618EE100A35
:1056C000FFF784FF044619EE100AFFF77FFF042D51
:1056D00018BF052D08D1042C18BF052C04D10028B3
:1056E00004BF022000F030F9B0EE490ABDEC048B93
:1056F00070BD4200B2EB410F3AD910F0004F19BF14
:10570000DFED630A9FED630ADFED630A9FED630A35
:10571000B0EE481A0A46B1EE688A80F00041F0EE19
:10572000418A10460A1A5200B2F1807F34D24840B2
:1057300010F0004FDFED5A1A9FED5A2A1DBFBEEE42
:10574000001A70EEE10A30EE420AB6EE001A08BF07
:1057500070EEA10A00E040E008BF30EE020AB0EEB1
:10576000682A01EE482A08EE818AC2EE081A15E07E
:1057700011F0004F04BF9FED4C0AF0EE400AD1D06B
:1057800010F0004F19BFDFED490A9FED490ADFED28
:10579000490A9FED490AC5E7C8EE881A21EEA11A09
:1057A0009FED462ADFED462A41EE022A9FED452A6B
:1057B00001EE222ADFED442A41EE022A9FED432A20
:1057C000BDEC048B01EE222A21EE811A01EE020AC1
:1057D00030EE210A30EE200A70BD4FF07F42B2EB6E
:1057E000400F28BFB2EB410F09D2F0EE480AB0EEED
:1057F000680ABDEC048BBDE8704000F08AB840EA4E
:1058000001035B0008BF41F0FF410BD0B2EB400F3A
:1058100008BFB2EB410F08D120F0804008EE900A9B
:1058200021F0804108EE101A18E7B2EB400F12BFCA
:105830005FEA410340F0FF4001F000413FF40EAF4A
:10584000B2EB410F12BF5FEA400200F0004041F0AE
:10585000FF413FF403AF4A0092EA40033FF5FEAE3A
:10586000002AACBF9FED1A0A9FED1A0A68EE808AE3
:1058700028EE008A18EE900A18EE101AEEE60000E4
:10588000DB0FC9BFDB0FC93FDB0F4940DB0F49C04E
:105890000000C9BF22AAFDB90000C93F22AAFD39F4
:1058A0000060ED3EC30ACE3700000000000049C092
:1058B00022AA7DBA0000494022AA7D3A2DAD65BDDD
:1058C0008FB8D53D0FB511BE61C84C3EA8AAAABE7F
:1058D0000000804F0000802F10B52DED028BB1EE3F
:1058E000C08A18EE100A20F00040C0F1FF40C00F3F
:1058F0000AD010EE100A20F00040C0F1FF40C00FA7
:1059000004BF012000F020F8B0EE480ABDEC028B85
:1059100010BD30EE200A70479FED020A20EE000A0B
:10592000704700000000001002E008C8121F08C104
:10593000002AFAD170477047002001E001C1121F10
:10594000002AFBD170470000014908607047000041
:105950002C0000202DE9FF5F82B00021DDE904303A
:10596000020DDDF840B0034318D044F61050A2F207
:10597000FF3242431514119801281FD0A5EB0B00EC
:10598000401C5FEA000A4FF000064E4FDFF83891E6
:10599000B046504615D5CAF1000413E01198012411
:1059A0004AA3012801D16FEA0B010298119AC0E9BC
:1059B0000031C0E9024206B0BDE8F09FCBF1000023
:1059C000DFE704460021404A491842EB0450CDE984
:1059D000001012E0E00707D032463B4640464946F9
:1059E000FAF7DAFC8046894632463B4610461946AD
:1059F000FAF7D2FC06460F466410002CEAD1DDE926
:105A00000401DDE90023BAF1000F06DAFAF7C4FC5D
:105A100042464B46FAF7C0FC05E0FAF7E6FD42467F
:105A20004B46FAF7E2FD04460E460022284BFAF7F1
:105A300063FE03D84FF0FF30014607E00022254BFC
:105A400020463146FAF701FCFAF73EFE102409E041
:105A5000002C0ADB0A220023FAF7B4FB039B303246
:105A60001A55641E50EA0102F2D1641C039AC4F173
:105A700011031444119A012A03D0012208430DD1C5
:105A80000AE0084304D000204FF0110B119072E798
:105A9000A3EB0B056D1E0DE05B4504DD4FF000022E
:105AA00005F1010504E003DA4FF00002A5F101055C
:105AB000002AECD002981199C0E90231C0E90045F2
:105AC00079E70000000014400000F03F30000000C3
:105AD0000000F0430000E03F2DE9FF4F95B09A46EB
